:020000040800F2
:1000000000C000200D070008510700085107000834
:1000100051070008510700085107000800000000C0
:100020000000000000000000000000005107000870
:1000300051070008000000005107000851070008A0
:100040005107000851070008510700085107000830
:100050005107000851070008510700085107000820
:100060005107000851070008510700085107000810
:100070005107000851070008510700085107000800
:1000800051070008510700085107000851070008F0
:1000900051070008510700085107000851070008E0
:1000A00051070008510700085107000851070008D0
:1000B00051070008510700085107000851070008C0
:1000C00051070008510700085107000851070008B0
:1000D00051070008510700085107000851070008A0
:1000E0005107000851070008510700085107000890
:1000F0005107000851070008510700085107000880
:10010000510700085107000851070008510700086F
:10011000510700085107000851070008510700085F
:10012000510700085107000851070008510700084F
:1001300000000000000000000000000000000000BF
:1001400000000000000000000000000000000000AF
:10015000000000000000000000000000000000009F
:10016000000000000000000000000000000000008F
:10017000000000000000000000000000000000007F
:10018000000000000000000000000000000000006F
:10019000000000000000000000000000000000005F
:1001A000000000000000000000000000000000004F
:1001B000000000000000000000000000000000003F
:1001C000000000000000000000000000000000002F
:1001D000000000000000000000000000000000001F
:0401E0005FF8E0F1F3
:1001E400044B05481B1A062B02D9044B03B11847CC
:1001F400704700BF2B0400202804002000000000EA
:1002040005490648091A891001EBD171491002D039
:10021400034B03B11847704728040020280400202A
:100224000000000010B5064C237843B9FFF7D8FF4F
:10023400044B13B10448AFF300800123237010BDB5
:1002440028040020000000004408000808B5084BFA
:100254001BB108480849AFF300800848036813B984
:10026400BDE80840CCE7064B002BF9D09847F7E7E8
:1002740000000000440800082C040020280400208A
:100284000000000080B500AF154A154B1B6843F011
:10029400010313601249124B5A68124B13404B600E
:1002A4000F4A0F4B1B6823F0847323F480331360CD
:1002B4000B4A0B4B1B6823F480231360084A084B3A
:1002C4005B6823F4FE035360054B4FF41F029A60EE
:1002D40000F00CF8044B4FF000629A6080BD00BF40
:1002E400001002400000FFF800ED00E080B500AF10
:1002F40000F002F880BD00BF80B483B000AF0023DB
:100304007B6000233B603A4A394B1B6843F48033DB
:100314001360374B1B6803F400333B607B68013385
:100324007B603B68002B03D17B68B3F5A06FF0D1F1
:100334002F4B1B6803F40033002B02D001233B60D6
:1003440001E000233B603B68012B4BD1294A294B38
:100354001B6843F010031360264A264B1B6823F0E6
:1003640003031360234A234B1B6843F00203136007
:100374001F4A1F4B5B6853601D4A1D4B5B685360EB
:100384001B4A1B4B5B6843F480635360184A184B49
:100394005B6823F47C135360154A154B5B6843F484
:1003A400E8135360124A124B1B6843F080731360C6
:1003B40000BF0F4B1B6803F00073002BF9D00C4AED
:1003C4000B4B5B6823F003035360094A084B5B68DB
:1003D40043F00203536000BF054B5B6803F00C035A
:1003E400082BF9D10C37BD465DF8047B704700BF7C
:1003F400001002400020024080B489B000AF786051
:1004040039600023FB6100233B610023BB610023AF
:10041400FB6000237B610023BB603B68DB7803F057
:100424000F03FB613B68DB7803F01003002B05D05E
:100434003B689B781A46FB691343FB613B681B8846
:10044400DBB2002B44D07B681B687B610023BB615B
:1004540038E0BB69012202FA03F3FB603B681B88A6
:100464001A46FB6813403B613A69FB689A4226D1FD
:10047400BB699B00FB60FB680F2202FA03F3BB60BD
:10048400BB68DB437A6913407B61FB68FA6902FA53
:1004940003F37A6913437B613B68DB78282B05D12E
:1004A400BB6901229A407B685A6108E03B68DB78AB
:1004B400482B04D1BB6901229A407B681A61BB694D
:1004C4000133BB61BB69072BC3D97B687A691A60A6
:1004D4003B681B88FF2B4AD97B685B687B610023E0
:1004E400BB613EE0BB6908331A4601239340FB60BD
:1004F4003B681B881A46FB6813403B613A69FB68FA
:100504009A422BD1BB699B00FB60FB680F2202FA65
:1005140003F3BB60BB68DB437A6913407B61FB6810
:10052400FA6902FA03F37A6913437B613B68DB7867
:10053400282B07D1BB6908331A46012303FA02F2B8
:100544007B685A613B68DB78482B07D1BB69083369
:100554001A46012303FA02F27B681A61BB6901336C
:10056400BB61BB69072BBDD97B687A695A602437A4
:10057400BD465DF8047B704780B483B000AF7860FB
:100584000B467B807A887B681A610C37BD465DF820
:10059400047B704780B483B000AF78600B467B80E7
:1005A4007A887B685A610C37BD465DF8047B7047D6
:1005B40080B483B000AF78600B46FB70FB78002BEF
:1005C40006D00949084B9A697B6813438B6106E09E
:1005D4000549054B9A697B68DB4313408B610C37F3
:1005E400BD465DF8047B70470010024080B500AF43
:1005F40000F03CF800F066F8FCE700BF80B485B07A
:1006040000AF78600023FB60164A174B1B8819461D
:100614007B6803FB01F35360124B00229A60114A7A
:10062400104B1B6843F0010313600E4B1B68FB6007
:10063400FB6803F00103002B04D0FB6803F4803350
:10064400002BF2D0074A074B1B6823F00103136009
:10065400044B00229A6000BF1437BD465DF8047B4A
:10066400704700BF10E000E04404002080B582B071
:1006740000AF24200121FFF79BFF4FF48073BB8060
:100684001023FB710323BB713B1D0C481946FFF774
:10069400B3FE0A484FF48071FFF76EFF0423BB805A
:1006A4003B1D07481946FFF7A7FE05480421FFF73D
:1006B40063FF00BF0837BD4680BD00BF000801408E
:1006C4000014014080B500AF0D484FF48071FFF76E
:1006D40061FF0C480421FFF74FFF4FF49670FFF7BA
:1006E4008DFF07484FF48071FFF746FF054804214A
:1006F400FFF750FF4FF49670FFF780FF00BF80BDF7
:100704000008014000140140002103E00A4B5B583B
:100714004350043109480A4B42189A42F6D3094A15
:1007240002E0002342F8043B074B9A42F9D3FFF757
:10073400A9FDFFF75BFF7047700800080000002068
:10074400280400202804002048040020FEE70000BC
:10075400014600200246034600F016B838B5084B9F
:10076400084DED1AAC1018BFED1805D0013C55F832
:10077400043D9847002CF9D1BDE8384000F066B834
:100784006C080008700800082DE9F047254C06465F
:1007940025688846D5F8484192469946C4B36068AE
:1007A4001F2817DC411C76B104EB8003C3F888A032
:1007B400D4F88851012282401543022EC4F888518E
:1007C400C3F808911ED0831C6160002044F8238084
:1007D400BDE8F087144B03B34FF4C870AFF3008047
:1007E4000446D0B1D5F84831002784E8880038465B
:1007F400C5F848410121C4F88871C4F88C71002EF1
:10080400E1D0D1E7D4F88C311A43C4F88C21DAE76B
:1008140005F5A674C5F84841C1E74FF0FF30BDE8BF
:10082400F08700BF6008000800000000024B13B10D
:100834000248FFF78DBF7047000000006107000801
:10084400F8B500BFF8BC08BC9E467047F8B500BFB9
:08085400F8BC08BC9E46704789
:08085C00430000000000002031
:080864003108000851020008F0
:04086C002902000855
:1008700000000000EC02002054030020BC03002014
:100880000000000000000000000000000000000068
:100890000000000000000000000000000000000058
:1008A000000000005C0800080000000000000000DC
:1008B0000000000000000000000000000000000038
:1008C0000000000000000000000000000000000028
:1008D0000000000000000000000000000000000018
:1008E0000000000000000000000000000000000008
:1008F00000000000000000000000000000000000F8
:1009000000000000000000000000000000000000E7
:1009100000000000000000000100000000000000D6
:100920000E33CDAB34126DE6ECDE05000B0000009B
:1009300000000000000000000000000000000000B7
:1009400000000000000000000000000000000000A7
:100950000000000000000000000000000000000097
:100960000000000000000000000000000000000087
:040000050800070DDB
:00000001FF
